:1000000016EF00F00000000000EF00F0000000001C
:0A0010000000000000000000F3D71C
:10001C000900F5CFE6FF0006FBE10106F9E112004D
:10002C00720ED36E926A936AFE0E806E010E816E12
:10003C00820E0C6EDD0E0D6E0D2EFED70C2EFCD727
:10004C0000000000020E816E020E0B6E040E0C6E90
:10005C00BA0E0D6E0D2EFED70C2EFCD70B2EFAD72A
:10006C000000040E816E020E0B6E040E0C6EBA0EA6
:10007C000D6E0D2EFED70C2EFCD70B2EFAD70000D2
:10008C00080E816E020E0B6E040E0C6EBA0E0D6E07
:10009C000D2EFED70C2EFCD70B2EFAD70000100E0F
:1000AC00816E020E0B6E040E0C6EBA0E0D6E0D2EC2
:1000BC00FED70C2EFCD70B2EFAD70000080E816E43
:1000CC00020E0B6E040E0C6EBA0E0D6E0D2EFED7BC
:1000DC000C2EFCD70B2EFAD70000040E816E020EEC
:1000EC000B6E040E0C6EBA0E0D6E0D2EFED70C2E72
:1000FC00FCD70B2EFAD70000020E816E020E0B6E8F
:10010C00040E0C6EBA0E0D6E0D2EFED70C2EFCD7F7
:10011C000B2EFAD70000010E816E820E0C6EDD0ED6
:10012C000D6E0D2EFED70C2EFCD700000000FD0E20
:10013C00806E010E816E820E0C6EDD0E0D6E0D2E1C
:10014C00FED70C2EFCD700000000020E816E020EB2
:10015C000B6E040E0C6EBA0E0D6E0D2EFED70C2E01
:10016C00FCD70B2EFAD70000040E816E020E0B6E1C
:10017C00040E0C6EBA0E0D6E0D2EFED70C2EFCD787
:10018C000B2EFAD70000080E816E020E0B6E040EB9
:10019C000C6EBA0E0D6E0D2EFED70C2EFCD70B2E40
:1001AC00FAD70000100E816E020E0B6E040E0C6E50
:1001BC00BA0E0D6E0D2EFED70C2EFCD70B2EFAD7C9
:1001CC000000080E816E020E0B6E040E0C6EBA0E41
:1001DC000D6E0D2EFED70C2EFCD70B2EFAD7000071
:1001EC00040E816E020E0B6E040E0C6EBA0E0D6EAA
:1001FC000D2EFED70C2EFCD70B2EFAD70000020EBC
:10020C00816E020E0B6E040E0C6EBA0E0D6E0D2E60
:10021C00FED70C2EFCD70B2EFAD70000010E816EE8
:10022C00820E0C6EDD0E0D6E0D2EFED70C2EFCD735
:10023C0000000000FB0E806E010E816E820E0C6EB3
:10024C00DD0E0D6E0D2EFED70C2EFCD7000000001F
:10025C00020E816E020E0B6E040E0C6EBA0E0D6E3B
:10026C000D2EFED70C2EFCD70B2EFAD70000040E49
:10027C00816E020E0B6E040E0C6EBA0E0D6E0D2EF0
:10028C00FED70C2EFCD70B2EFAD70000080E816E71
:10029C00020E0B6E040E0C6EBA0E0D6E0D2EFED7EA
:1002AC000C2EFCD70B2EFAD70000100E816E020E0E
:1002BC000B6E040E0C6EBA0E0D6E0D2EFED70C2EA0
:1002CC00FCD70B2EFAD70000080E816E020E0B6EB7
:1002DC00040E0C6EBA0E0D6E0D2EFED70C2EFCD726
:1002EC000B2EFAD70000040E816E020E0B6E040E5C
:1002FC000C6EBA0E0D6E0D2EFED70C2EFCD70B2EDF
:10030C00FAD70000020E816E020E0B6E040E0C6EFC
:10031C00BA0E0D6E0D2EFED70C2EFCD70B2EFAD767
:10032C000000010E816E820E0C6EDD0E0D6E0D2E18
:0E033C00FED70C2EFCD70000000076D6FFD7AF
:020000040030CA
:0D00010008191EFF0381FF0FC00FE00F4024
:00000001FF
